{
	"Documents/GitHub/doth/contract/Remix_workplace/LoanContract.sol": {
		"LoanContract": {
			"abi": [
				{
					"inputs": [
						{
							"internalType": "uint256",
							"name": "_APR",
							"type": "uint256"
						}
					],
					"stateMutability": "nonpayable",
					"type": "constructor"
				},
				{
					"anonymous": false,
					"inputs": [
						{
							"indexed": false,
							"internalType": "uint256",
							"name": "APR",
							"type": "uint256"
						}
					],
					"name": "APRChanged",
					"type": "event"
				},
				{
					"anonymous": false,
					"inputs": [
						{
							"indexed": false,
							"internalType": "address",
							"name": "borrower",
							"type": "address"
						},
						{
							"indexed": false,
							"internalType": "uint256",
							"name": "eth_value",
							"type": "uint256"
						},
						{
							"indexed": false,
							"internalType": "uint256",
							"name": "startTime",
							"type": "uint256"
						},
						{
							"indexed": false,
							"internalType": "uint256",
							"name": "endTime",
							"type": "uint256"
						},
						{
							"indexed": false,
							"internalType": "uint256",
							"name": "APR",
							"type": "uint256"
						}
					],
					"name": "LoanStart",
					"type": "event"
				},
				{
					"inputs": [],
					"name": "APR",
					"outputs": [
						{
							"internalType": "uint256",
							"name": "",
							"type": "uint256"
						}
					],
					"stateMutability": "view",
					"type": "function"
				},
				{
					"inputs": [],
					"name": "getloanList",
					"outputs": [
						{
							"components": [
								{
									"internalType": "address",
									"name": "borrower",
									"type": "address"
								},
								{
									"internalType": "uint256",
									"name": "ethValue",
									"type": "uint256"
								},
								{
									"internalType": "uint256",
									"name": "startTime",
									"type": "uint256"
								},
								{
									"internalType": "uint256",
									"name": "endTime",
									"type": "uint256"
								},
								{
									"internalType": "uint256",
									"name": "APR",
									"type": "uint256"
								}
							],
							"internalType": "struct LoanContract.Loan[]",
							"name": "",
							"type": "tuple[]"
						}
					],
					"stateMutability": "view",
					"type": "function"
				},
				{
					"inputs": [
						{
							"internalType": "address",
							"name": "",
							"type": "address"
						},
						{
							"internalType": "uint256",
							"name": "",
							"type": "uint256"
						}
					],
					"name": "loanList",
					"outputs": [
						{
							"internalType": "address",
							"name": "borrower",
							"type": "address"
						},
						{
							"internalType": "uint256",
							"name": "ethValue",
							"type": "uint256"
						},
						{
							"internalType": "uint256",
							"name": "startTime",
							"type": "uint256"
						},
						{
							"internalType": "uint256",
							"name": "endTime",
							"type": "uint256"
						},
						{
							"internalType": "uint256",
							"name": "APR",
							"type": "uint256"
						}
					],
					"stateMutability": "view",
					"type": "function"
				},
				{
					"inputs": [
						{
							"internalType": "uint256",
							"name": "_APR",
							"type": "uint256"
						}
					],
					"name": "setAPR",
					"outputs": [
						{
							"internalType": "bool",
							"name": "",
							"type": "bool"
						}
					],
					"stateMutability": "nonpayable",
					"type": "function"
				},
				{
					"inputs": [
						{
							"internalType": "uint256",
							"name": "_loanDay",
							"type": "uint256"
						}
					],
					"name": "setLoan",
					"outputs": [
						{
							"internalType": "bool",
							"name": "",
							"type": "bool"
						}
					],
					"stateMutability": "payable",
					"type": "function"
				}
			],
			"devdoc": {
				"kind": "dev",
				"methods": {},
				"version": 1
			},
			"evm": {
				"assembly": "    /* \"Documents/GitHub/doth/contract/Remix_workplace/LoanContract.sol\":91:1717  contract LoanContract {... */\n  mstore(0x40, 0x80)\n    /* \"Documents/GitHub/doth/contract/Remix_workplace/LoanContract.sol\":626:712  constructor(uint _APR) public {... */\n  callvalue\n  dup1\n  iszero\n  tag_1\n  jumpi\n  0x00\n  dup1\n  revert\ntag_1:\n  pop\n  mload(0x40)\n  sub(codesize, bytecodeSize)\n  dup1\n  bytecodeSize\n  dup4\n  codecopy\n  dup2\n  dup2\n  add\n  0x40\n  mstore\n  dup2\n  add\n  swap1\n  tag_2\n  swap2\n  swap1\n  tag_3\n  jump\t// in\ntag_2:\n    /* \"Documents/GitHub/doth/contract/Remix_workplace/LoanContract.sol\":674:684  msg.sender */\n  caller\n    /* \"Documents/GitHub/doth/contract/Remix_workplace/LoanContract.sol\":666:671  owner */\n  0x06\n  0x00\n    /* \"Documents/GitHub/doth/contract/Remix_workplace/LoanContract.sol\":666:684  owner = msg.sender */\n  0x0100\n  exp\n  dup2\n  sload\n  dup2\n  0xffffffffffffffffffffffffffffffffffffffff\n  mul\n  not\n  and\n  swap1\n  dup4\n  0xffffffffffffffffffffffffffffffffffffffff\n  and\n  mul\n  or\n  swap1\n  sstore\n  pop\n    /* \"Documents/GitHub/doth/contract/Remix_workplace/LoanContract.sol\":700:704  _APR */\n  dup1\n    /* \"Documents/GitHub/doth/contract/Remix_workplace/LoanContract.sol\":694:697  APR */\n  0x07\n    /* \"Documents/GitHub/doth/contract/Remix_workplace/LoanContract.sol\":694:704  APR = _APR */\n  dup2\n  swap1\n  sstore\n  pop\n    /* \"Documents/GitHub/doth/contract/Remix_workplace/LoanContract.sol\":626:712  constructor(uint _APR) public {... */\n  pop\n    /* \"Documents/GitHub/doth/contract/Remix_workplace/LoanContract.sol\":91:1717  contract LoanContract {... */\n  jump(tag_6)\n    /* \"--CODEGEN--\":5:139   */\ntag_8:\n  0x00\n    /* \"--CODEGEN--\":89:95   */\n  dup2\n    /* \"--CODEGEN--\":83:96   */\n  mload\n    /* \"--CODEGEN--\":74:96   */\n  swap1\n  pop\n    /* \"--CODEGEN--\":101:134   */\n  tag_10\n    /* \"--CODEGEN--\":128:133   */\n  dup2\n    /* \"--CODEGEN--\":101:134   */\n  tag_11\n  jump\t// in\ntag_10:\n    /* \"--CODEGEN--\":68:139   */\n  swap3\n  swap2\n  pop\n  pop\n  jump\t// out\n    /* \"--CODEGEN--\":146:409   */\ntag_3:\n  0x00\n    /* \"--CODEGEN--\":261:263   */\n  0x20\n    /* \"--CODEGEN--\":249:258   */\n  dup3\n    /* \"--CODEGEN--\":240:247   */\n  dup5\n    /* \"--CODEGEN--\":236:259   */\n  sub\n    /* \"--CODEGEN--\":232:264   */\n  slt\n    /* \"--CODEGEN--\":229:231   */\n  iszero\n  tag_13\n  jumpi\n    /* \"--CODEGEN--\":277:278   */\n  0x00\n    /* \"--CODEGEN--\":274:275   */\n  dup1\n    /* \"--CODEGEN--\":267:279   */\n  revert\n    /* \"--CODEGEN--\":229:231   */\ntag_13:\n    /* \"--CODEGEN--\":312:313   */\n  0x00\n    /* \"--CODEGEN--\":329:393   */\n  tag_14\n    /* \"--CODEGEN--\":385:392   */\n  dup5\n    /* \"--CODEGEN--\":376:382   */\n  dup3\n    /* \"--CODEGEN--\":365:374   */\n  dup6\n    /* \"--CODEGEN--\":361:383   */\n  add\n    /* \"--CODEGEN--\":329:393   */\n  tag_8\n  jump\t// in\ntag_14:\n    /* \"--CODEGEN--\":319:393   */\n  swap2\n  pop\n    /* \"--CODEGEN--\":291:399   */\n  pop\n    /* \"--CODEGEN--\":223:409   */\n  swap3\n  swap2\n  pop\n  pop\n  jump\t// out\n    /* \"--CODEGEN--\":416:488   */\ntag_15:\n  0x00\n    /* \"--CODEGEN--\":478:483   */\n  dup2\n    /* \"--CODEGEN--\":467:483   */\n  swap1\n  pop\n    /* \"--CODEGEN--\":461:488   */\n  swap2\n  swap1\n  pop\n  jump\t// out\n    /* \"--CODEGEN--\":495:612   */\ntag_11:\n    /* \"--CODEGEN--\":564:588   */\n  tag_18\n    /* \"--CODEGEN--\":582:587   */\n  dup2\n    /* \"--CODEGEN--\":564:588   */\n  tag_15\n  jump\t// in\ntag_18:\n    /* \"--CODEGEN--\":557:562   */\n  dup2\n    /* \"--CODEGEN--\":554:589   */\n  eq\n    /* \"--CODEGEN--\":544:546   */\n  tag_19\n  jumpi\n    /* \"--CODEGEN--\":603:604   */\n  0x00\n    /* \"--CODEGEN--\":600:601   */\n  dup1\n    /* \"--CODEGEN--\":593:605   */\n  revert\n    /* \"--CODEGEN--\":544:546   */\ntag_19:\n    /* \"--CODEGEN--\":538:612   */\n  pop\n  jump\t// out\n    /* \"Documents/GitHub/doth/contract/Remix_workplace/LoanContract.sol\":91:1717  contract LoanContract {... */\ntag_6:\n  dataSize(sub_0)\n  dup1\n  dataOffset(sub_0)\n  0x00\n  codecopy\n  0x00\n  return\nstop\n\nsub_0: assembly {\n        /* \"Documents/GitHub/doth/contract/Remix_workplace/LoanContract.sol\":91:1717  contract LoanContract {... */\n      mstore(0x40, 0x80)\n      jumpi(tag_1, lt(calldatasize, 0x04))\n      shr(0xe0, calldataload(0x00))\n      dup1\n      0x126d0854\n      eq\n      tag_2\n      jumpi\n      dup1\n      0x854303cf\n      eq\n      tag_3\n      jumpi\n      dup1\n      0x8e63a10d\n      eq\n      tag_4\n      jumpi\n      dup1\n      0xa05475c9\n      eq\n      tag_5\n      jumpi\n      dup1\n      0xbd30558e\n      eq\n      tag_6\n      jumpi\n    tag_1:\n      0x00\n      dup1\n      revert\n        /* \"Documents/GitHub/doth/contract/Remix_workplace/LoanContract.sol\":873:1338  function setLoan(uint _loanDay) public payable returns(bool){... */\n    tag_2:\n      tag_7\n      0x04\n      dup1\n      calldatasize\n      sub\n      dup2\n      add\n      swap1\n      tag_8\n      swap2\n      swap1\n      tag_9\n      jump\t// in\n    tag_8:\n      tag_10\n      jump\t// in\n    tag_7:\n      mload(0x40)\n      tag_11\n      swap2\n      swap1\n      tag_12\n      jump\t// in\n    tag_11:\n      mload(0x40)\n      dup1\n      swap2\n      sub\n      swap1\n      return\n        /* \"Documents/GitHub/doth/contract/Remix_workplace/LoanContract.sol\":1529:1714  function setAPR(uint _APR) public returns(bool){... */\n    tag_3:\n      callvalue\n      dup1\n      iszero\n      tag_13\n      jumpi\n      0x00\n      dup1\n      revert\n    tag_13:\n      pop\n      tag_14\n      0x04\n      dup1\n      calldatasize\n      sub\n      dup2\n      add\n      swap1\n      tag_15\n      swap2\n      swap1\n      tag_9\n      jump\t// in\n    tag_15:\n      tag_16\n      jump\t// in\n    tag_14:\n      mload(0x40)\n      tag_17\n      swap2\n      swap1\n      tag_12\n      jump\t// in\n    tag_17:\n      mload(0x40)\n      dup1\n      swap2\n      sub\n      swap1\n      return\n        /* \"Documents/GitHub/doth/contract/Remix_workplace/LoanContract.sol\":1344:1504  function getloanList() public view returns (Loan[] memory) {... */\n    tag_4:\n      callvalue\n      dup1\n      iszero\n      tag_18\n      jumpi\n      0x00\n      dup1\n      revert\n    tag_18:\n      pop\n      tag_19\n      tag_20\n      jump\t// in\n    tag_19:\n      mload(0x40)\n      tag_21\n      swap2\n      swap1\n      tag_22\n      jump\t// in\n    tag_21:\n      mload(0x40)\n      dup1\n      swap2\n      sub\n      swap1\n      return\n        /* \"Documents/GitHub/doth/contract/Remix_workplace/LoanContract.sol\":451:494  mapping(address => Loan[] ) public loanList */\n    tag_5:\n      callvalue\n      dup1\n      iszero\n      tag_23\n      jumpi\n      0x00\n      dup1\n      revert\n    tag_23:\n      pop\n      tag_24\n      0x04\n      dup1\n      calldatasize\n      sub\n      dup2\n      add\n      swap1\n      tag_25\n      swap2\n      swap1\n      tag_26\n      jump\t// in\n    tag_25:\n      tag_27\n      jump\t// in\n    tag_24:\n      mload(0x40)\n      tag_28\n      swap6\n      swap5\n      swap4\n      swap3\n      swap2\n      swap1\n      tag_29\n      jump\t// in\n    tag_28:\n      mload(0x40)\n      dup1\n      swap2\n      sub\n      swap1\n      return\n        /* \"Documents/GitHub/doth/contract/Remix_workplace/LoanContract.sol\":534:549  uint public APR */\n    tag_6:\n      callvalue\n      dup1\n      iszero\n      tag_30\n      jumpi\n      0x00\n      dup1\n      revert\n    tag_30:\n      pop\n      tag_31\n      tag_32\n      jump\t// in\n    tag_31:\n      mload(0x40)\n      tag_33\n      swap2\n      swap1\n      tag_34\n      jump\t// in\n    tag_33:\n      mload(0x40)\n      dup1\n      swap2\n      sub\n      swap1\n      return\n        /* \"Documents/GitHub/doth/contract/Remix_workplace/LoanContract.sol\":873:1338  function setLoan(uint _loanDay) public payable returns(bool){... */\n    tag_10:\n        /* \"Documents/GitHub/doth/contract/Remix_workplace/LoanContract.sol\":928:932  bool */\n      0x00\n        /* \"Documents/GitHub/doth/contract/Remix_workplace/LoanContract.sol\":959:969  msg.sender */\n      caller\n        /* \"Documents/GitHub/doth/contract/Remix_workplace/LoanContract.sol\":943:947  loan */\n      0x01\n        /* \"Documents/GitHub/doth/contract/Remix_workplace/LoanContract.sol\":943:956  loan.borrower */\n      0x00\n      add\n      0x00\n        /* \"Documents/GitHub/doth/contract/Remix_workplace/LoanContract.sol\":943:969  loan.borrower = msg.sender */\n      0x0100\n      exp\n      dup2\n      sload\n      dup2\n      0xffffffffffffffffffffffffffffffffffffffff\n      mul\n      not\n      and\n      swap1\n      dup4\n      0xffffffffffffffffffffffffffffffffffffffff\n      and\n      mul\n      or\n      swap1\n      sstore\n      pop\n        /* \"Documents/GitHub/doth/contract/Remix_workplace/LoanContract.sol\":996:1011  block.timestamp */\n      timestamp\n        /* \"Documents/GitHub/doth/contract/Remix_workplace/LoanContract.sol\":979:983  loan */\n      0x01\n        /* \"Documents/GitHub/doth/contract/Remix_workplace/LoanContract.sol\":979:993  loan.startTime */\n      0x02\n      add\n        /* \"Documents/GitHub/doth/contract/Remix_workplace/LoanContract.sol\":979:1011  loan.startTime = block.timestamp */\n      dup2\n      swap1\n      sstore\n      pop\n        /* \"Documents/GitHub/doth/contract/Remix_workplace/LoanContract.sol\":1109:1115  1 days */\n      0x015180\n        /* \"Documents/GitHub/doth/contract/Remix_workplace/LoanContract.sol\":1098:1106  _loanDay */\n      dup3\n        /* \"Documents/GitHub/doth/contract/Remix_workplace/LoanContract.sol\":1098:1115  _loanDay * 1 days */\n      mul\n        /* \"Documents/GitHub/doth/contract/Remix_workplace/LoanContract.sol\":1080:1095  block.timestamp */\n      timestamp\n        /* \"Documents/GitHub/doth/contract/Remix_workplace/LoanContract.sol\":1080:1115  block.timestamp + _loanDay * 1 days */\n      add\n        /* \"Documents/GitHub/doth/contract/Remix_workplace/LoanContract.sol\":1065:1069  loan */\n      0x01\n        /* \"Documents/GitHub/doth/contract/Remix_workplace/LoanContract.sol\":1065:1077  loan.endTime */\n      0x03\n      add\n        /* \"Documents/GitHub/doth/contract/Remix_workplace/LoanContract.sol\":1065:1115  loan.endTime = block.timestamp + _loanDay * 1 days */\n      dup2\n      swap1\n      sstore\n      pop\n        /* \"Documents/GitHub/doth/contract/Remix_workplace/LoanContract.sol\":1143:1152  msg.value */\n      callvalue\n        /* \"Documents/GitHub/doth/contract/Remix_workplace/LoanContract.sol\":1127:1131  loan */\n      0x01\n        /* \"Documents/GitHub/doth/contract/Remix_workplace/LoanContract.sol\":1127:1140  loan.ethValue */\n      dup1\n      add\n        /* \"Documents/GitHub/doth/contract/Remix_workplace/LoanContract.sol\":1127:1152  loan.ethValue = msg.value */\n      dup2\n      swap1\n      sstore\n      pop\n        /* \"Documents/GitHub/doth/contract/Remix_workplace/LoanContract.sol\":1173:1176  APR */\n      sload(0x07)\n        /* \"Documents/GitHub/doth/contract/Remix_workplace/LoanContract.sol\":1162:1166  loan */\n      0x01\n        /* \"Documents/GitHub/doth/contract/Remix_workplace/LoanContract.sol\":1162:1170  loan.APR */\n      0x04\n      add\n        /* \"Documents/GitHub/doth/contract/Remix_workplace/LoanContract.sol\":1162:1176  loan.APR = APR */\n      dup2\n      swap1\n      sstore\n      pop\n        /* \"Documents/GitHub/doth/contract/Remix_workplace/LoanContract.sol\":1186:1194  loanList */\n      0x00\n        /* \"Documents/GitHub/doth/contract/Remix_workplace/LoanContract.sol\":1186:1206  loanList[msg.sender] */\n      dup1\n        /* \"Documents/GitHub/doth/contract/Remix_workplace/LoanContract.sol\":1195:1205  msg.sender */\n      caller\n        /* \"Documents/GitHub/doth/contract/Remix_workplace/LoanContract.sol\":1186:1206  loanList[msg.sender] */\n      0xffffffffffffffffffffffffffffffffffffffff\n      and\n      0xffffffffffffffffffffffffffffffffffffffff\n      and\n      dup2\n      mstore\n      0x20\n      add\n      swap1\n      dup2\n      mstore\n      0x20\n      add\n      0x00\n      keccak256\n        /* \"Documents/GitHub/doth/contract/Remix_workplace/LoanContract.sol\":1212:1216  loan */\n      0x01\n        /* \"Documents/GitHub/doth/contract/Remix_workplace/LoanContract.sol\":1186:1217  loanList[msg.sender].push(loan) */\n      swap1\n      dup1\n      0x01\n      dup2\n      sload\n      add\n      dup1\n      dup3\n      sstore\n      dup1\n      swap2\n      pop\n      pop\n      0x01\n      swap1\n      sub\n      swap1\n      0x00\n      mstore\n      keccak256(0x00, 0x20)\n      swap1\n      0x05\n      mul\n      add\n      0x00\n      swap1\n      swap2\n      swap1\n      swap2\n      swap1\n      swap2\n      pop\n      0x00\n      dup3\n      add\n      0x00\n      swap1\n      sload\n      swap1\n      0x0100\n      exp\n      swap1\n      div\n      0xffffffffffffffffffffffffffffffffffffffff\n      and\n      dup2\n      0x00\n      add\n      exp(0x0100, 0x00)\n      dup2\n      sload\n      dup2\n      0xffffffffffffffffffffffffffffffffffffffff\n      mul\n      not\n      and\n      swap1\n      dup4\n      0xffffffffffffffffffffffffffffffffffffffff\n      and\n      mul\n      or\n      swap1\n      sstore\n      pop\n      0x01\n      dup3\n      add\n      sload\n      dup2\n      0x01\n      add\n      sstore\n      0x02\n      dup3\n      add\n      sload\n      dup2\n      0x02\n      add\n      sstore\n      0x03\n      dup3\n      add\n      sload\n      dup2\n      0x03\n      add\n      sstore\n      0x04\n      dup3\n      add\n      sload\n      dup2\n      0x04\n      add\n      sstore\n      pop\n      pop\n        /* \"Documents/GitHub/doth/contract/Remix_workplace/LoanContract.sol\":1232:1311  LoanStart(loan.borrower, loan.ethValue, loan.startTime, loan.endTime, loan.APR) */\n      0x1be81593136e4f27f6ceb1a9e322e5f008630d930a31ffd61e60025412636de3\n        /* \"Documents/GitHub/doth/contract/Remix_workplace/LoanContract.sol\":1242:1246  loan */\n      0x01\n        /* \"Documents/GitHub/doth/contract/Remix_workplace/LoanContract.sol\":1242:1255  loan.borrower */\n      0x00\n      add\n      0x00\n      swap1\n      sload\n      swap1\n      0x0100\n      exp\n      swap1\n      div\n      0xffffffffffffffffffffffffffffffffffffffff\n      and\n        /* \"Documents/GitHub/doth/contract/Remix_workplace/LoanContract.sol\":1257:1261  loan */\n      0x01\n        /* \"Documents/GitHub/doth/contract/Remix_workplace/LoanContract.sol\":1257:1270  loan.ethValue */\n      dup1\n      add\n      sload\n        /* \"Documents/GitHub/doth/contract/Remix_workplace/LoanContract.sol\":1272:1276  loan */\n      0x01\n        /* \"Documents/GitHub/doth/contract/Remix_workplace/LoanContract.sol\":1272:1286  loan.startTime */\n      0x02\n      add\n      sload\n        /* \"Documents/GitHub/doth/contract/Remix_workplace/LoanContract.sol\":1288:1292  loan */\n      0x01\n        /* \"Documents/GitHub/doth/contract/Remix_workplace/LoanContract.sol\":1288:1300  loan.endTime */\n      0x03\n      add\n      sload\n        /* \"Documents/GitHub/doth/contract/Remix_workplace/LoanContract.sol\":1302:1306  loan */\n      0x01\n        /* \"Documents/GitHub/doth/contract/Remix_workplace/LoanContract.sol\":1302:1310  loan.APR */\n      0x04\n      add\n      sload\n        /* \"Documents/GitHub/doth/contract/Remix_workplace/LoanContract.sol\":1232:1311  LoanStart(loan.borrower, loan.ethValue, loan.startTime, loan.endTime, loan.APR) */\n      mload(0x40)\n      tag_37\n      swap6\n      swap5\n      swap4\n      swap3\n      swap2\n      swap1\n      tag_29\n      jump\t// in\n    tag_37:\n      mload(0x40)\n      dup1\n      swap2\n      sub\n      swap1\n      log1\n        /* \"Documents/GitHub/doth/contract/Remix_workplace/LoanContract.sol\":1328:1332  true */\n      0x01\n        /* \"Documents/GitHub/doth/contract/Remix_workplace/LoanContract.sol\":1321:1332  return true */\n      swap1\n      pop\n        /* \"Documents/GitHub/doth/contract/Remix_workplace/LoanContract.sol\":873:1338  function setLoan(uint _loanDay) public payable returns(bool){... */\n      swap2\n      swap1\n      pop\n      jump\t// out\n        /* \"Documents/GitHub/doth/contract/Remix_workplace/LoanContract.sol\":1529:1714  function setAPR(uint _APR) public returns(bool){... */\n    tag_16:\n        /* \"Documents/GitHub/doth/contract/Remix_workplace/LoanContract.sol\":1571:1575  bool */\n      0x00\n        /* \"Documents/GitHub/doth/contract/Remix_workplace/LoanContract.sol\":1608:1613  owner */\n      0x06\n      0x00\n      swap1\n      sload\n      swap1\n      0x0100\n      exp\n      swap1\n      div\n      0xffffffffffffffffffffffffffffffffffffffff\n      and\n        /* \"Documents/GitHub/doth/contract/Remix_workplace/LoanContract.sol\":1594:1613  msg.sender == owner */\n      0xffffffffffffffffffffffffffffffffffffffff\n      and\n        /* \"Documents/GitHub/doth/contract/Remix_workplace/LoanContract.sol\":1594:1604  msg.sender */\n      caller\n        /* \"Documents/GitHub/doth/contract/Remix_workplace/LoanContract.sol\":1594:1613  msg.sender == owner */\n      0xffffffffffffffffffffffffffffffffffffffff\n      and\n      eq\n        /* \"Documents/GitHub/doth/contract/Remix_workplace/LoanContract.sol\":1586:1627  require(msg.sender == owner, \"Forbidden\") */\n      tag_39\n      jumpi\n      mload(0x40)\n      0x08c379a000000000000000000000000000000000000000000000000000000000\n      dup2\n      mstore\n      0x04\n      add\n      tag_40\n      swap1\n      tag_41\n      jump\t// in\n    tag_40:\n      mload(0x40)\n      dup1\n      swap2\n      sub\n      swap1\n      revert\n    tag_39:\n        /* \"Documents/GitHub/doth/contract/Remix_workplace/LoanContract.sol\":1643:1647  _APR */\n      dup2\n        /* \"Documents/GitHub/doth/contract/Remix_workplace/LoanContract.sol\":1637:1640  APR */\n      0x07\n        /* \"Documents/GitHub/doth/contract/Remix_workplace/LoanContract.sol\":1637:1647  APR = _APR */\n      dup2\n      swap1\n      sstore\n      pop\n        /* \"Documents/GitHub/doth/contract/Remix_workplace/LoanContract.sol\":1662:1678  APRChanged(_APR) */\n      0xb0f8bd9fe66bce43fb8d6b03bdc7a4f02ccdfe8f6674cf8bd0beaaa7a2a75702\n        /* \"Documents/GitHub/doth/contract/Remix_workplace/LoanContract.sol\":1673:1677  _APR */\n      dup3\n        /* \"Documents/GitHub/doth/contract/Remix_workplace/LoanContract.sol\":1662:1678  APRChanged(_APR) */\n      mload(0x40)\n      tag_42\n      swap2\n      swap1\n      tag_34\n      jump\t// in\n    tag_42:\n      mload(0x40)\n      dup1\n      swap2\n      sub\n      swap1\n      log1\n        /* \"Documents/GitHub/doth/contract/Remix_workplace/LoanContract.sol\":1695:1699  true */\n      0x01\n        /* \"Documents/GitHub/doth/contract/Remix_workplace/LoanContract.sol\":1688:1699  return true */\n      swap1\n      pop\n        /* \"Documents/GitHub/doth/contract/Remix_workplace/LoanContract.sol\":1529:1714  function setAPR(uint _APR) public returns(bool){... */\n      swap2\n      swap1\n      pop\n      jump\t// out\n        /* \"Documents/GitHub/doth/contract/Remix_workplace/LoanContract.sol\":1344:1504  function getloanList() public view returns (Loan[] memory) {... */\n    tag_20:\n        /* \"Documents/GitHub/doth/contract/Remix_workplace/LoanContract.sol\":1388:1401  Loan[] memory */\n      0x60\n        /* \"Documents/GitHub/doth/contract/Remix_workplace/LoanContract.sol\":1478:1486  loanList */\n      0x00\n        /* \"Documents/GitHub/doth/contract/Remix_workplace/LoanContract.sol\":1478:1498  loanList[msg.sender] */\n      dup1\n        /* \"Documents/GitHub/doth/contract/Remix_workplace/LoanContract.sol\":1487:1497  msg.sender */\n      caller\n        /* \"Documents/GitHub/doth/contract/Remix_workplace/LoanContract.sol\":1478:1498  loanList[msg.sender] */\n      0xffffffffffffffffffffffffffffffffffffffff\n      and\n      0xffffffffffffffffffffffffffffffffffffffff\n      and\n      dup2\n      mstore\n      0x20\n      add\n      swap1\n      dup2\n      mstore\n      0x20\n      add\n      0x00\n      keccak256\n        /* \"Documents/GitHub/doth/contract/Remix_workplace/LoanContract.sol\":1471:1498  return loanList[msg.sender] */\n      dup1\n      sload\n      dup1\n      0x20\n      mul\n      0x20\n      add\n      mload(0x40)\n      swap1\n      dup2\n      add\n      0x40\n      mstore\n      dup1\n      swap3\n      swap2\n      swap1\n      dup2\n      dup2\n      mstore\n      0x20\n      add\n      0x00\n      swap1\n    tag_44:\n      dup3\n      dup3\n      lt\n      iszero\n      tag_45\n      jumpi\n      dup4\n      dup3\n      swap1\n      0x00\n      mstore\n      keccak256(0x00, 0x20)\n      swap1\n      0x05\n      mul\n      add\n      mload(0x40)\n      dup1\n      0xa0\n      add\n      0x40\n      mstore\n      swap1\n      dup2\n      0x00\n      dup3\n      add\n      0x00\n      swap1\n      sload\n      swap1\n      0x0100\n      exp\n      swap1\n      div\n      0xffffffffffffffffffffffffffffffffffffffff\n      and\n      0xffffffffffffffffffffffffffffffffffffffff\n      and\n      0xffffffffffffffffffffffffffffffffffffffff\n      and\n      dup2\n      mstore\n      0x20\n      add\n      0x01\n      dup3\n      add\n      sload\n      dup2\n      mstore\n      0x20\n      add\n      0x02\n      dup3\n      add\n      sload\n      dup2\n      mstore\n      0x20\n      add\n      0x03\n      dup3\n      add\n      sload\n      dup2\n      mstore\n      0x20\n      add\n      0x04\n      dup3\n      add\n      sload\n      dup2\n      mstore\n      pop\n      pop\n      dup2\n      mstore\n      0x20\n      add\n      swap1\n      0x01\n      add\n      swap1\n      jump(tag_44)\n    tag_45:\n      pop\n      pop\n      pop\n      pop\n      swap1\n      pop\n        /* \"Documents/GitHub/doth/contract/Remix_workplace/LoanContract.sol\":1344:1504  function getloanList() public view returns (Loan[] memory) {... */\n      swap1\n      jump\t// out\n        /* \"Documents/GitHub/doth/contract/Remix_workplace/LoanContract.sol\":451:494  mapping(address => Loan[] ) public loanList */\n    tag_27:\n      mstore(0x20, 0x00)\n      dup2\n      0x00\n      mstore\n      keccak256(0x00, 0x40)\n      dup2\n      dup2\n      sload\n      dup2\n      lt\n      tag_47\n      jumpi\n      invalid\n    tag_47:\n      swap1\n      0x00\n      mstore\n      keccak256(0x00, 0x20)\n      swap1\n      0x05\n      mul\n      add\n      0x00\n      swap2\n      pop\n      swap2\n      pop\n      pop\n      dup1\n      0x00\n      add\n      0x00\n      swap1\n      sload\n      swap1\n      0x0100\n      exp\n      swap1\n      div\n      0xffffffffffffffffffffffffffffffffffffffff\n      and\n      swap1\n      dup1\n      0x01\n      add\n      sload\n      swap1\n      dup1\n      0x02\n      add\n      sload\n      swap1\n      dup1\n      0x03\n      add\n      sload\n      swap1\n      dup1\n      0x04\n      add\n      sload\n      swap1\n      pop\n      dup6\n      jump\t// out\n        /* \"Documents/GitHub/doth/contract/Remix_workplace/LoanContract.sol\":534:549  uint public APR */\n    tag_32:\n      sload(0x07)\n      dup2\n      jump\t// out\n        /* \"--CODEGEN--\":5:135   */\n    tag_50:\n      0x00\n        /* \"--CODEGEN--\":85:91   */\n      dup2\n        /* \"--CODEGEN--\":72:92   */\n      calldataload\n        /* \"--CODEGEN--\":63:92   */\n      swap1\n      pop\n        /* \"--CODEGEN--\":97:130   */\n      tag_52\n        /* \"--CODEGEN--\":124:129   */\n      dup2\n        /* \"--CODEGEN--\":97:130   */\n      tag_53\n      jump\t// in\n    tag_52:\n        /* \"--CODEGEN--\":57:135   */\n      swap3\n      swap2\n      pop\n      pop\n      jump\t// out\n        /* \"--CODEGEN--\":142:272   */\n    tag_54:\n      0x00\n        /* \"--CODEGEN--\":222:228   */\n      dup2\n        /* \"--CODEGEN--\":209:229   */\n      calldataload\n        /* \"--CODEGEN--\":200:229   */\n      swap1\n      pop\n        /* \"--CODEGEN--\":234:267   */\n      tag_56\n        /* \"--CODEGEN--\":261:266   */\n      dup2\n        /* \"--CODEGEN--\":234:267   */\n      tag_57\n      jump\t// in\n    tag_56:\n        /* \"--CODEGEN--\":194:272   */\n      swap3\n      swap2\n      pop\n      pop\n      jump\t// out\n        /* \"--CODEGEN--\":279:645   */\n    tag_26:\n      0x00\n      dup1\n        /* \"--CODEGEN--\":400:402   */\n      0x40\n        /* \"--CODEGEN--\":388:397   */\n      dup4\n        /* \"--CODEGEN--\":379:386   */\n      dup6\n        /* \"--CODEGEN--\":375:398   */\n      sub\n        /* \"--CODEGEN--\":371:403   */\n      slt\n        /* \"--CODEGEN--\":368:370   */\n      iszero\n      tag_59\n      jumpi\n        /* \"--CODEGEN--\":416:417   */\n      0x00\n        /* \"--CODEGEN--\":413:414   */\n      dup1\n        /* \"--CODEGEN--\":406:418   */\n      revert\n        /* \"--CODEGEN--\":368:370   */\n    tag_59:\n        /* \"--CODEGEN--\":451:452   */\n      0x00\n        /* \"--CODEGEN--\":468:521   */\n      tag_60\n        /* \"--CODEGEN--\":513:520   */\n      dup6\n        /* \"--CODEGEN--\":504:510   */\n      dup3\n        /* \"--CODEGEN--\":493:502   */\n      dup7\n        /* \"--CODEGEN--\":489:511   */\n      add\n        /* \"--CODEGEN--\":468:521   */\n      tag_50\n      jump\t// in\n    tag_60:\n        /* \"--CODEGEN--\":458:521   */\n      swap3\n      pop\n        /* \"--CODEGEN--\":430:527   */\n      pop\n        /* \"--CODEGEN--\":558:560   */\n      0x20\n        /* \"--CODEGEN--\":576:629   */\n      tag_61\n        /* \"--CODEGEN--\":621:628   */\n      dup6\n        /* \"--CODEGEN--\":612:618   */\n      dup3\n        /* \"--CODEGEN--\":601:610   */\n      dup7\n        /* \"--CODEGEN--\":597:619   */\n      add\n        /* \"--CODEGEN--\":576:629   */\n      tag_54\n      jump\t// in\n    tag_61:\n        /* \"--CODEGEN--\":566:629   */\n      swap2\n      pop\n        /* \"--CODEGEN--\":537:635   */\n      pop\n        /* \"--CODEGEN--\":362:645   */\n      swap3\n      pop\n      swap3\n      swap1\n      pop\n      jump\t// out\n        /* \"--CODEGEN--\":652:893   */\n    tag_9:\n      0x00\n        /* \"--CODEGEN--\":756:758   */\n      0x20\n        /* \"--CODEGEN--\":744:753   */\n      dup3\n        /* \"--CODEGEN--\":735:742   */\n      dup5\n        /* \"--CODEGEN--\":731:754   */\n      sub\n        /* \"--CODEGEN--\":727:759   */\n      slt\n        /* \"--CODEGEN--\":724:726   */\n      iszero\n      tag_63\n      jumpi\n        /* \"--CODEGEN--\":772:773   */\n      0x00\n        /* \"--CODEGEN--\":769:770   */\n      dup1\n        /* \"--CODEGEN--\":762:774   */\n      revert\n        /* \"--CODEGEN--\":724:726   */\n    tag_63:\n        /* \"--CODEGEN--\":807:808   */\n      0x00\n        /* \"--CODEGEN--\":824:877   */\n      tag_64\n        /* \"--CODEGEN--\":869:876   */\n      dup5\n        /* \"--CODEGEN--\":860:866   */\n      dup3\n        /* \"--CODEGEN--\":849:858   */\n      dup6\n        /* \"--CODEGEN--\":845:867   */\n      add\n        /* \"--CODEGEN--\":824:877   */\n      tag_54\n      jump\t// in\n    tag_64:\n        /* \"--CODEGEN--\":814:877   */\n      swap2\n      pop\n        /* \"--CODEGEN--\":786:883   */\n      pop\n        /* \"--CODEGEN--\":718:893   */\n      swap3\n      swap2\n      pop\n      pop\n      jump\t// out\n        /* \"--CODEGEN--\":901:1154   */\n    tag_65:\n      0x00\n        /* \"--CODEGEN--\":1028:1114   */\n      tag_67\n        /* \"--CODEGEN--\":1110:1113   */\n      dup4\n        /* \"--CODEGEN--\":1102:1108   */\n      dup4\n        /* \"--CODEGEN--\":1028:1114   */\n      tag_68\n      jump\t// in\n    tag_67:\n        /* \"--CODEGEN--\":1143:1147   */\n      0xa0\n        /* \"--CODEGEN--\":1138:1141   */\n      dup4\n        /* \"--CODEGEN--\":1134:1148   */\n      add\n        /* \"--CODEGEN--\":1120:1148   */\n      swap1\n      pop\n        /* \"--CODEGEN--\":1021:1154   */\n      swap3\n      swap2\n      pop\n      pop\n      jump\t// out\n        /* \"--CODEGEN--\":1162:1265   */\n    tag_69:\n        /* \"--CODEGEN--\":1235:1259   */\n      tag_71\n        /* \"--CODEGEN--\":1253:1258   */\n      dup2\n        /* \"--CODEGEN--\":1235:1259   */\n      tag_72\n      jump\t// in\n    tag_71:\n        /* \"--CODEGEN--\":1230:1233   */\n      dup3\n        /* \"--CODEGEN--\":1223:1260   */\n      mstore\n        /* \"--CODEGEN--\":1217:1265   */\n      pop\n      pop\n      jump\t// out\n        /* \"--CODEGEN--\":1272:1385   */\n    tag_73:\n        /* \"--CODEGEN--\":1355:1379   */\n      tag_75\n        /* \"--CODEGEN--\":1373:1378   */\n      dup2\n        /* \"--CODEGEN--\":1355:1379   */\n      tag_72\n      jump\t// in\n    tag_75:\n        /* \"--CODEGEN--\":1350:1353   */\n      dup3\n        /* \"--CODEGEN--\":1343:1380   */\n      mstore\n        /* \"--CODEGEN--\":1337:1385   */\n      pop\n      pop\n      jump\t// out\n        /* \"--CODEGEN--\":1457:2307   */\n    tag_76:\n      0x00\n        /* \"--CODEGEN--\":1642:1716   */\n      tag_78\n        /* \"--CODEGEN--\":1710:1715   */\n      dup3\n        /* \"--CODEGEN--\":1642:1716   */\n      tag_79\n      jump\t// in\n    tag_78:\n        /* \"--CODEGEN--\":1729:1835   */\n      tag_80\n        /* \"--CODEGEN--\":1828:1834   */\n      dup2\n        /* \"--CODEGEN--\":1823:1826   */\n      dup6\n        /* \"--CODEGEN--\":1729:1835   */\n      tag_81\n      jump\t// in\n    tag_80:\n        /* \"--CODEGEN--\":1722:1835   */\n      swap4\n      pop\n        /* \"--CODEGEN--\":1856:1932   */\n      tag_82\n        /* \"--CODEGEN--\":1926:1931   */\n      dup4\n        /* \"--CODEGEN--\":1856:1932   */\n      tag_83\n      jump\t// in\n    tag_82:\n        /* \"--CODEGEN--\":1952:1959   */\n      dup1\n        /* \"--CODEGEN--\":1980:1981   */\n      0x00\n        /* \"--CODEGEN--\":1965:2285   */\n    tag_84:\n        /* \"--CODEGEN--\":1990:1996   */\n      dup4\n        /* \"--CODEGEN--\":1987:1988   */\n      dup2\n        /* \"--CODEGEN--\":1984:1997   */\n      lt\n        /* \"--CODEGEN--\":1965:2285   */\n      iszero\n      tag_86\n      jumpi\n        /* \"--CODEGEN--\":2057:2063   */\n      dup2\n        /* \"--CODEGEN--\":2051:2064   */\n      mload\n        /* \"--CODEGEN--\":2078:2181   */\n      tag_87\n        /* \"--CODEGEN--\":2177:2180   */\n      dup9\n        /* \"--CODEGEN--\":2162:2175   */\n      dup3\n        /* \"--CODEGEN--\":2078:2181   */\n      tag_65\n      jump\t// in\n    tag_87:\n        /* \"--CODEGEN--\":2071:2181   */\n      swap8\n      pop\n        /* \"--CODEGEN--\":2198:2278   */\n      tag_88\n        /* \"--CODEGEN--\":2271:2277   */\n      dup4\n        /* \"--CODEGEN--\":2198:2278   */\n      tag_89\n      jump\t// in\n    tag_88:\n        /* \"--CODEGEN--\":2188:2278   */\n      swap3\n      pop\n        /* \"--CODEGEN--\":2022:2285   */\n      pop\n        /* \"--CODEGEN--\":2012:2013   */\n      0x01\n        /* \"--CODEGEN--\":2009:2010   */\n      dup2\n        /* \"--CODEGEN--\":2005:2014   */\n      add\n        /* \"--CODEGEN--\":2000:2014   */\n      swap1\n      pop\n        /* \"--CODEGEN--\":1965:2285   */\n      jump(tag_84)\n    tag_86:\n        /* \"--CODEGEN--\":1969:1983   */\n      pop\n        /* \"--CODEGEN--\":2298:2301   */\n      dup6\n        /* \"--CODEGEN--\":2291:2301   */\n      swap4\n      pop\n        /* \"--CODEGEN--\":1621:2307   */\n      pop\n      pop\n      pop\n      swap3\n      swap2\n      pop\n      pop\n      jump\t// out\n        /* \"--CODEGEN--\":2315:2419   */\n    tag_90:\n        /* \"--CODEGEN--\":2392:2413   */\n      tag_92\n        /* \"--CODEGEN--\":2407:2412   */\n      dup2\n        /* \"--CODEGEN--\":2392:2413   */\n      tag_93\n      jump\t// in\n    tag_92:\n        /* \"--CODEGEN--\":2387:2390   */\n      dup3\n        /* \"--CODEGEN--\":2380:2414   */\n      mstore\n        /* \"--CODEGEN--\":2374:2419   */\n      pop\n      pop\n      jump\t// out\n        /* \"--CODEGEN--\":2427:2735   */\n    tag_94:\n      0x00\n        /* \"--CODEGEN--\":2587:2653   */\n      tag_96\n        /* \"--CODEGEN--\":2651:2652   */\n      0x09\n        /* \"--CODEGEN--\":2646:2649   */\n      dup4\n        /* \"--CODEGEN--\":2587:2653   */\n      tag_97\n      jump\t// in\n    tag_96:\n        /* \"--CODEGEN--\":2580:2653   */\n      swap2\n      pop\n        /* \"--CODEGEN--\":2686:2697   */\n      0x466f7262696464656e0000000000000000000000000000000000000000000000\n        /* \"--CODEGEN--\":2682:2683   */\n      0x00\n        /* \"--CODEGEN--\":2677:2680   */\n      dup4\n        /* \"--CODEGEN--\":2673:2684   */\n      add\n        /* \"--CODEGEN--\":2666:2698   */\n      mstore\n        /* \"--CODEGEN--\":2726:2728   */\n      0x20\n        /* \"--CODEGEN--\":2721:2724   */\n      dup3\n        /* \"--CODEGEN--\":2717:2729   */\n      add\n        /* \"--CODEGEN--\":2710:2729   */\n      swap1\n      pop\n        /* \"--CODEGEN--\":2573:2735   */\n      swap2\n      swap1\n      pop\n      jump\t// out\n        /* \"--CODEGEN--\":2802:3735   */\n    tag_68:\n        /* \"--CODEGEN--\":2925:2929   */\n      0xa0\n        /* \"--CODEGEN--\":2920:2923   */\n      dup3\n        /* \"--CODEGEN--\":2916:2930   */\n      add\n        /* \"--CODEGEN--\":3012:3016   */\n      0x00\n        /* \"--CODEGEN--\":3005:3010   */\n      dup3\n        /* \"--CODEGEN--\":3001:3017   */\n      add\n        /* \"--CODEGEN--\":2995:3018   */\n      mload\n        /* \"--CODEGEN--\":3024:3087   */\n      tag_99\n        /* \"--CODEGEN--\":3081:3085   */\n      0x00\n        /* \"--CODEGEN--\":3076:3079   */\n      dup6\n        /* \"--CODEGEN--\":3072:3086   */\n      add\n        /* \"--CODEGEN--\":3058:3070   */\n      dup3\n        /* \"--CODEGEN--\":3024:3087   */\n      tag_69\n      jump\t// in\n    tag_99:\n        /* \"--CODEGEN--\":2945:3093   */\n      pop\n        /* \"--CODEGEN--\":3170:3174   */\n      0x20\n        /* \"--CODEGEN--\":3163:3168   */\n      dup3\n        /* \"--CODEGEN--\":3159:3175   */\n      add\n        /* \"--CODEGEN--\":3153:3176   */\n      mload\n        /* \"--CODEGEN--\":3182:3245   */\n      tag_100\n        /* \"--CODEGEN--\":3239:3243   */\n      0x20\n        /* \"--CODEGEN--\":3234:3237   */\n      dup6\n        /* \"--CODEGEN--\":3230:3244   */\n      add\n        /* \"--CODEGEN--\":3216:3228   */\n      dup3\n        /* \"--CODEGEN--\":3182:3245   */\n      tag_101\n      jump\t// in\n    tag_100:\n        /* \"--CODEGEN--\":3103:3251   */\n      pop\n        /* \"--CODEGEN--\":3329:3333   */\n      0x40\n        /* \"--CODEGEN--\":3322:3327   */\n      dup3\n        /* \"--CODEGEN--\":3318:3334   */\n      add\n        /* \"--CODEGEN--\":3312:3335   */\n      mload\n        /* \"--CODEGEN--\":3341:3404   */\n      tag_102\n        /* \"--CODEGEN--\":3398:3402   */\n      0x40\n        /* \"--CODEGEN--\":3393:3396   */\n      dup6\n        /* \"--CODEGEN--\":3389:3403   */\n      add\n        /* \"--CODEGEN--\":3375:3387   */\n      dup3\n        /* \"--CODEGEN--\":3341:3404   */\n      tag_101\n      jump\t// in\n    tag_102:\n        /* \"--CODEGEN--\":3261:3410   */\n      pop\n        /* \"--CODEGEN--\":3486:3490   */\n      0x60\n        /* \"--CODEGEN--\":3479:3484   */\n      dup3\n        /* \"--CODEGEN--\":3475:3491   */\n      add\n        /* \"--CODEGEN--\":3469:3492   */\n      mload\n        /* \"--CODEGEN--\":3498:3561   */\n      tag_103\n        /* \"--CODEGEN--\":3555:3559   */\n      0x60\n        /* \"--CODEGEN--\":3550:3553   */\n      dup6\n        /* \"--CODEGEN--\":3546:3560   */\n      add\n        /* \"--CODEGEN--\":3532:3544   */\n      dup3\n        /* \"--CODEGEN--\":3498:3561   */\n      tag_101\n      jump\t// in\n    tag_103:\n        /* \"--CODEGEN--\":3420:3567   */\n      pop\n        /* \"--CODEGEN--\":3639:3643   */\n      0x80\n        /* \"--CODEGEN--\":3632:3637   */\n      dup3\n        /* \"--CODEGEN--\":3628:3644   */\n      add\n        /* \"--CODEGEN--\":3622:3645   */\n      mload\n        /* \"--CODEGEN--\":3651:3714   */\n      tag_104\n        /* \"--CODEGEN--\":3708:3712   */\n      0x80\n        /* \"--CODEGEN--\":3703:3706   */\n      dup6\n        /* \"--CODEGEN--\":3699:3713   */\n      add\n        /* \"--CODEGEN--\":3685:3697   */\n      dup3\n        /* \"--CODEGEN--\":3651:3714   */\n      tag_101\n      jump\t// in\n    tag_104:\n        /* \"--CODEGEN--\":3577:3720   */\n      pop\n        /* \"--CODEGEN--\":2898:3735   */\n      pop\n      pop\n      pop\n      jump\t// out\n        /* \"--CODEGEN--\":3742:3845   */\n    tag_101:\n        /* \"--CODEGEN--\":3815:3839   */\n      tag_106\n        /* \"--CODEGEN--\":3833:3838   */\n      dup2\n        /* \"--CODEGEN--\":3815:3839   */\n      tag_107\n      jump\t// in\n    tag_106:\n        /* \"--CODEGEN--\":3810:3813   */\n      dup3\n        /* \"--CODEGEN--\":3803:3840   */\n      mstore\n        /* \"--CODEGEN--\":3797:3845   */\n      pop\n      pop\n      jump\t// out\n        /* \"--CODEGEN--\":3852:3965   */\n    tag_108:\n        /* \"--CODEGEN--\":3935:3959   */\n      tag_110\n        /* \"--CODEGEN--\":3953:3958   */\n      dup2\n        /* \"--CODEGEN--\":3935:3959   */\n      tag_107\n      jump\t// in\n    tag_110:\n        /* \"--CODEGEN--\":3930:3933   */\n      dup3\n        /* \"--CODEGEN--\":3923:3960   */\n      mstore\n        /* \"--CODEGEN--\":3917:3965   */\n      pop\n      pop\n      jump\t// out\n        /* \"--CODEGEN--\":3972:4640   */\n    tag_29:\n      0x00\n        /* \"--CODEGEN--\":4211:4214   */\n      0xa0\n        /* \"--CODEGEN--\":4200:4209   */\n      dup3\n        /* \"--CODEGEN--\":4196:4215   */\n      add\n        /* \"--CODEGEN--\":4188:4215   */\n      swap1\n      pop\n        /* \"--CODEGEN--\":4226:4297   */\n      tag_112\n        /* \"--CODEGEN--\":4294:4295   */\n      0x00\n        /* \"--CODEGEN--\":4283:4292   */\n      dup4\n        /* \"--CODEGEN--\":4279:4296   */\n      add\n        /* \"--CODEGEN--\":4270:4276   */\n      dup9\n        /* \"--CODEGEN--\":4226:4297   */\n      tag_73\n      jump\t// in\n    tag_112:\n        /* \"--CODEGEN--\":4308:4380   */\n      tag_113\n        /* \"--CODEGEN--\":4376:4378   */\n      0x20\n        /* \"--CODEGEN--\":4365:4374   */\n      dup4\n        /* \"--CODEGEN--\":4361:4379   */\n      add\n        /* \"--CODEGEN--\":4352:4358   */\n      dup8\n        /* \"--CODEGEN--\":4308:4380   */\n      tag_108\n      jump\t// in\n    tag_113:\n        /* \"--CODEGEN--\":4391:4463   */\n      tag_114\n        /* \"--CODEGEN--\":4459:4461   */\n      0x40\n        /* \"--CODEGEN--\":4448:4457   */\n      dup4\n        /* \"--CODEGEN--\":4444:4462   */\n      add\n        /* \"--CODEGEN--\":4435:4441   */\n      dup7\n        /* \"--CODEGEN--\":4391:4463   */\n      tag_108\n      jump\t// in\n    tag_114:\n        /* \"--CODEGEN--\":4474:4546   */\n      tag_115\n        /* \"--CODEGEN--\":4542:4544   */\n      0x60\n        /* \"--CODEGEN--\":4531:4540   */\n      dup4\n        /* \"--CODEGEN--\":4527:4545   */\n      add\n        /* \"--CODEGEN--\":4518:4524   */\n      dup6\n        /* \"--CODEGEN--\":4474:4546   */\n      tag_108\n      jump\t// in\n    tag_115:\n        /* \"--CODEGEN--\":4557:4630   */\n      tag_116\n        /* \"--CODEGEN--\":4625:4628   */\n      0x80\n        /* \"--CODEGEN--\":4614:4623   */\n      dup4\n        /* \"--CODEGEN--\":4610:4629   */\n      add\n        /* \"--CODEGEN--\":4601:4607   */\n      dup5\n        /* \"--CODEGEN--\":4557:4630   */\n      tag_108\n      jump\t// in\n    tag_116:\n        /* \"--CODEGEN--\":4182:4640   */\n      swap7\n      swap6\n      pop\n      pop\n      pop\n      pop\n      pop\n      pop\n      jump\t// out\n        /* \"--CODEGEN--\":4647:5097   */\n    tag_22:\n      0x00\n        /* \"--CODEGEN--\":4864:4866   */\n      0x20\n        /* \"--CODEGEN--\":4853:4862   */\n      dup3\n        /* \"--CODEGEN--\":4849:4867   */\n      add\n        /* \"--CODEGEN--\":4841:4867   */\n      swap1\n      pop\n        /* \"--CODEGEN--\":4914:4923   */\n      dup2\n        /* \"--CODEGEN--\":4908:4912   */\n      dup2\n        /* \"--CODEGEN--\":4904:4924   */\n      sub\n        /* \"--CODEGEN--\":4900:4901   */\n      0x00\n        /* \"--CODEGEN--\":4889:4898   */\n      dup4\n        /* \"--CODEGEN--\":4885:4902   */\n      add\n        /* \"--CODEGEN--\":4878:4925   */\n      mstore\n        /* \"--CODEGEN--\":4939:5087   */\n      tag_118\n        /* \"--CODEGEN--\":5082:5086   */\n      dup2\n        /* \"--CODEGEN--\":5073:5079   */\n      dup5\n        /* \"--CODEGEN--\":4939:5087   */\n      tag_76\n      jump\t// in\n    tag_118:\n        /* \"--CODEGEN--\":4931:5087   */\n      swap1\n      pop\n        /* \"--CODEGEN--\":4835:5097   */\n      swap3\n      swap2\n      pop\n      pop\n      jump\t// out\n        /* \"--CODEGEN--\":5104:5314   */\n    tag_12:\n      0x00\n        /* \"--CODEGEN--\":5225:5227   */\n      0x20\n        /* \"--CODEGEN--\":5214:5223   */\n      dup3\n        /* \"--CODEGEN--\":5210:5228   */\n      add\n        /* \"--CODEGEN--\":5202:5228   */\n      swap1\n      pop\n        /* \"--CODEGEN--\":5239:5304   */\n      tag_120\n        /* \"--CODEGEN--\":5301:5302   */\n      0x00\n        /* \"--CODEGEN--\":5290:5299   */\n      dup4\n        /* \"--CODEGEN--\":5286:5303   */\n      add\n        /* \"--CODEGEN--\":5277:5283   */\n      dup5\n        /* \"--CODEGEN--\":5239:5304   */\n      tag_90\n      jump\t// in\n    tag_120:\n        /* \"--CODEGEN--\":5196:5314   */\n      swap3\n      swap2\n      pop\n      pop\n      jump\t// out\n        /* \"--CODEGEN--\":5321:5737   */\n    tag_41:\n      0x00\n        /* \"--CODEGEN--\":5521:5523   */\n      0x20\n        /* \"--CODEGEN--\":5510:5519   */\n      dup3\n        /* \"--CODEGEN--\":5506:5524   */\n      add\n        /* \"--CODEGEN--\":5498:5524   */\n      swap1\n      pop\n        /* \"--CODEGEN--\":5571:5580   */\n      dup2\n        /* \"--CODEGEN--\":5565:5569   */\n      dup2\n        /* \"--CODEGEN--\":5561:5581   */\n      sub\n        /* \"--CODEGEN--\":5557:5558   */\n      0x00\n        /* \"--CODEGEN--\":5546:5555   */\n      dup4\n        /* \"--CODEGEN--\":5542:5559   */\n      add\n        /* \"--CODEGEN--\":5535:5582   */\n      mstore\n        /* \"--CODEGEN--\":5596:5727   */\n      tag_122\n        /* \"--CODEGEN--\":5722:5726   */\n      dup2\n        /* \"--CODEGEN--\":5596:5727   */\n      tag_94\n      jump\t// in\n    tag_122:\n        /* \"--CODEGEN--\":5588:5727   */\n      swap1\n      pop\n        /* \"--CODEGEN--\":5492:5737   */\n      swap2\n      swap1\n      pop\n      jump\t// out\n        /* \"--CODEGEN--\":5744:5966   */\n    tag_34:\n      0x00\n        /* \"--CODEGEN--\":5871:5873   */\n      0x20\n        /* \"--CODEGEN--\":5860:5869   */\n      dup3\n        /* \"--CODEGEN--\":5856:5874   */\n      add\n        /* \"--CODEGEN--\":5848:5874   */\n      swap1\n      pop\n        /* \"--CODEGEN--\":5885:5956   */\n      tag_124\n        /* \"--CODEGEN--\":5953:5954   */\n      0x00\n        /* \"--CODEGEN--\":5942:5951   */\n      dup4\n        /* \"--CODEGEN--\":5938:5955   */\n      add\n        /* \"--CODEGEN--\":5929:5935   */\n      dup5\n        /* \"--CODEGEN--\":5885:5956   */\n      tag_108\n      jump\t// in\n    tag_124:\n        /* \"--CODEGEN--\":5842:5966   */\n      swap3\n      swap2\n      pop\n      pop\n      jump\t// out\n        /* \"--CODEGEN--\":5973:6144   */\n    tag_83:\n      0x00\n        /* \"--CODEGEN--\":6079:6082   */\n      dup2\n        /* \"--CODEGEN--\":6071:6082   */\n      swap1\n      pop\n        /* \"--CODEGEN--\":6117:6121   */\n      0x20\n        /* \"--CODEGEN--\":6112:6115   */\n      dup3\n        /* \"--CODEGEN--\":6108:6122   */\n      add\n        /* \"--CODEGEN--\":6100:6122   */\n      swap1\n      pop\n        /* \"--CODEGEN--\":6065:6144   */\n      swap2\n      swap1\n      pop\n      jump\t// out\n        /* \"--CODEGEN--\":6151:6308   */\n    tag_79:\n      0x00\n        /* \"--CODEGEN--\":6280:6285   */\n      dup2\n        /* \"--CODEGEN--\":6274:6286   */\n      mload\n        /* \"--CODEGEN--\":6264:6286   */\n      swap1\n      pop\n        /* \"--CODEGEN--\":6245:6308   */\n      swap2\n      swap1\n      pop\n      jump\t// out\n        /* \"--CODEGEN--\":6315:6443   */\n    tag_89:\n      0x00\n        /* \"--CODEGEN--\":6433:6437   */\n      0x20\n        /* \"--CODEGEN--\":6428:6431   */\n      dup3\n        /* \"--CODEGEN--\":6424:6438   */\n      add\n        /* \"--CODEGEN--\":6416:6438   */\n      swap1\n      pop\n        /* \"--CODEGEN--\":6410:6443   */\n      swap2\n      swap1\n      pop\n      jump\t// out\n        /* \"--CODEGEN--\":6451:6649   */\n    tag_81:\n      0x00\n        /* \"--CODEGEN--\":6601:6607   */\n      dup3\n        /* \"--CODEGEN--\":6596:6599   */\n      dup3\n        /* \"--CODEGEN--\":6589:6608   */\n      mstore\n        /* \"--CODEGEN--\":6638:6642   */\n      0x20\n        /* \"--CODEGEN--\":6633:6636   */\n      dup3\n        /* \"--CODEGEN--\":6629:6643   */\n      add\n        /* \"--CODEGEN--\":6614:6643   */\n      swap1\n      pop\n        /* \"--CODEGEN--\":6582:6649   */\n      swap3\n      swap2\n      pop\n      pop\n      jump\t// out\n        /* \"--CODEGEN--\":6658:6821   */\n    tag_97:\n      0x00\n        /* \"--CODEGEN--\":6773:6779   */\n      dup3\n        /* \"--CODEGEN--\":6768:6771   */\n      dup3\n        /* \"--CODEGEN--\":6761:6780   */\n      mstore\n        /* \"--CODEGEN--\":6810:6814   */\n      0x20\n        /* \"--CODEGEN--\":6805:6808   */\n      dup3\n        /* \"--CODEGEN--\":6801:6815   */\n      add\n        /* \"--CODEGEN--\":6786:6815   */\n      swap1\n      pop\n        /* \"--CODEGEN--\":6754:6821   */\n      swap3\n      swap2\n      pop\n      pop\n      jump\t// out\n        /* \"--CODEGEN--\":6829:6920   */\n    tag_72:\n      0x00\n        /* \"--CODEGEN--\":6891:6915   */\n      tag_131\n        /* \"--CODEGEN--\":6909:6914   */\n      dup3\n        /* \"--CODEGEN--\":6891:6915   */\n      tag_132\n      jump\t// in\n    tag_131:\n        /* \"--CODEGEN--\":6880:6915   */\n      swap1\n      pop\n        /* \"--CODEGEN--\":6874:6920   */\n      swap2\n      swap1\n      pop\n      jump\t// out\n        /* \"--CODEGEN--\":6927:7012   */\n    tag_93:\n      0x00\n        /* \"--CODEGEN--\":7000:7005   */\n      dup2\n        /* \"--CODEGEN--\":6993:7006   */\n      iszero\n        /* \"--CODEGEN--\":6986:7007   */\n      iszero\n        /* \"--CODEGEN--\":6975:7007   */\n      swap1\n      pop\n        /* \"--CODEGEN--\":6969:7012   */\n      swap2\n      swap1\n      pop\n      jump\t// out\n        /* \"--CODEGEN--\":7019:7140   */\n    tag_132:\n      0x00\n        /* \"--CODEGEN--\":7092:7134   */\n      0xffffffffffffffffffffffffffffffffffffffff\n        /* \"--CODEGEN--\":7085:7090   */\n      dup3\n        /* \"--CODEGEN--\":7081:7135   */\n      and\n        /* \"--CODEGEN--\":7070:7135   */\n      swap1\n      pop\n        /* \"--CODEGEN--\":7064:7140   */\n      swap2\n      swap1\n      pop\n      jump\t// out\n        /* \"--CODEGEN--\":7147:7219   */\n    tag_107:\n      0x00\n        /* \"--CODEGEN--\":7209:7214   */\n      dup2\n        /* \"--CODEGEN--\":7198:7214   */\n      swap1\n      pop\n        /* \"--CODEGEN--\":7192:7219   */\n      swap2\n      swap1\n      pop\n      jump\t// out\n        /* \"--CODEGEN--\":7226:7343   */\n    tag_53:\n        /* \"--CODEGEN--\":7295:7319   */\n      tag_137\n        /* \"--CODEGEN--\":7313:7318   */\n      dup2\n        /* \"--CODEGEN--\":7295:7319   */\n      tag_72\n      jump\t// in\n    tag_137:\n        /* \"--CODEGEN--\":7288:7293   */\n      dup2\n        /* \"--CODEGEN--\":7285:7320   */\n      eq\n        /* \"--CODEGEN--\":7275:7277   */\n      tag_138\n      jumpi\n        /* \"--CODEGEN--\":7334:7335   */\n      0x00\n        /* \"--CODEGEN--\":7331:7332   */\n      dup1\n        /* \"--CODEGEN--\":7324:7336   */\n      revert\n        /* \"--CODEGEN--\":7275:7277   */\n    tag_138:\n        /* \"--CODEGEN--\":7269:7343   */\n      pop\n      jump\t// out\n        /* \"--CODEGEN--\":7350:7467   */\n    tag_57:\n        /* \"--CODEGEN--\":7419:7443   */\n      tag_140\n        /* \"--CODEGEN--\":7437:7442   */\n      dup2\n        /* \"--CODEGEN--\":7419:7443   */\n      tag_107\n      jump\t// in\n    tag_140:\n        /* \"--CODEGEN--\":7412:7417   */\n      dup2\n        /* \"--CODEGEN--\":7409:7444   */\n      eq\n        /* \"--CODEGEN--\":7399:7401   */\n      tag_141\n      jumpi\n        /* \"--CODEGEN--\":7458:7459   */\n      0x00\n        /* \"--CODEGEN--\":7455:7456   */\n      dup1\n        /* \"--CODEGEN--\":7448:7460   */\n      revert\n        /* \"--CODEGEN--\":7399:7401   */\n    tag_141:\n        /* \"--CODEGEN--\":7393:7467   */\n      pop\n      jump\t// out\n\n    auxdata: 0xa264697066735822122041a5824a83dbdebeabf588ec87d6480d674bd9d1f09a11e965cea3e850a24be564736f6c634300060c0033\n}\n",
				"bytecode": {
					"linkReferences": {},
					"object": "608060405234801561001057600080fd5b50604051610a52380380610a5283398181016040528101906100329190610095565b33600660006101000a81548173ffffffffffffffffffffffffffffffffffffffff021916908373ffffffffffffffffffffffffffffffffffffffff16021790555080600781905550506100df565b60008151905061008f816100c8565b92915050565b6000602082840312156100a757600080fd5b60006100b584828501610080565b91505092915050565b6000819050919050565b6100d1816100be565b81146100dc57600080fd5b50565b610964806100ee6000396000f3fe60806040526004361061004a5760003560e01c8063126d08541461004f578063854303cf1461007f5780638e63a10d146100bc578063a05475c9146100e7578063bd30558e14610128575b600080fd5b61006960048036038101906100649190610611565b610153565b6040516100769190610818565b60405180910390f35b34801561008b57600080fd5b506100a660048036038101906100a19190610611565b610343565b6040516100b39190610818565b60405180910390f35b3480156100c857600080fd5b506100d161041c565b6040516100de91906107f6565b60405180910390f35b3480156100f357600080fd5b5061010e600480360381019061010991906105d5565b610535565b60405161011f9594939291906107a3565b60405180910390f35b34801561013457600080fd5b5061013d6105a5565b60405161014a9190610853565b60405180910390f35b600033600160000160006101000a81548173ffffffffffffffffffffffffffffffffffffffff021916908373ffffffffffffffffffffffffffffffffffffffff1602179055504260016002018190555062015180820242016001600301819055503460018001819055506007546001600401819055506000803373ffffffffffffffffffffffffffffffffffffffff1673ffffffffffffffffffffffffffffffffffffffff168152602001908152602001600020600190806001815401808255809150506001900390600052602060002090600502016000909190919091506000820160009054906101000a900473ffffffffffffffffffffffffffffffffffffffff168160000160006101000a81548173ffffffffffffffffffffffffffffffffffffffff021916908373ffffffffffffffffffffffffffffffffffffffff1602179055506001820154816001015560028201548160020155600382015481600301556004820154816004015550507f1be81593136e4f27f6ceb1a9e322e5f008630d930a31ffd61e60025412636de3600160000160009054906101000a900473ffffffffffffffffffffffffffffffffffffffff1660018001546001600201546001600301546001600401546040516103329594939291906107a3565b60405180910390a160019050919050565b6000600660009054906101000a900473ffffffffffffffffffffffffffffffffffffffff1673ffffffffffffffffffffffffffffffffffffffff163373ffffffffffffffffffffffffffffffffffffffff16146103d5576040517f08c379a00000000000000000000000000000000000000000000000000000000081526004016103cc90610833565b60405180910390fd5b816007819055507fb0f8bd9fe66bce43fb8d6b03bdc7a4f02ccdfe8f6674cf8bd0beaaa7a2a757028260405161040b9190610853565b60405180910390a160019050919050565b60606000803373ffffffffffffffffffffffffffffffffffffffff1673ffffffffffffffffffffffffffffffffffffffff168152602001908152602001600020805480602002602001604051908101604052809291908181526020016000905b8282101561052c57838290600052602060002090600502016040518060a00160405290816000820160009054906101000a900473ffffffffffffffffffffffffffffffffffffffff1673ffffffffffffffffffffffffffffffffffffffff1673ffffffffffffffffffffffffffffffffffffffff1681526020016001820154815260200160028201548152602001600382015481526020016004820154815250508152602001906001019061047c565b50505050905090565b6000602052816000526040600020818154811061054e57fe5b9060005260206000209060050201600091509150508060000160009054906101000a900473ffffffffffffffffffffffffffffffffffffffff16908060010154908060020154908060030154908060040154905085565b60075481565b6000813590506105ba81610900565b92915050565b6000813590506105cf81610917565b92915050565b600080604083850312156105e857600080fd5b60006105f6858286016105ab565b9250506020610607858286016105c0565b9150509250929050565b60006020828403121561062357600080fd5b6000610631848285016105c0565b91505092915050565b6000610646838361071d565b60a08301905092915050565b61065b816108b8565b82525050565b61066a816108b8565b82525050565b600061067b8261087e565b6106858185610896565b93506106908361086e565b8060005b838110156106c15781516106a8888261063a565b97506106b383610889565b925050600181019050610694565b5085935050505092915050565b6106d7816108ca565b82525050565b60006106ea6009836108a7565b91507f466f7262696464656e00000000000000000000000000000000000000000000006000830152602082019050919050565b60a0820160008201516107336000850182610652565b5060208201516107466020850182610785565b5060408201516107596040850182610785565b50606082015161076c6060850182610785565b50608082015161077f6080850182610785565b50505050565b61078e816108f6565b82525050565b61079d816108f6565b82525050565b600060a0820190506107b86000830188610661565b6107c56020830187610794565b6107d26040830186610794565b6107df6060830185610794565b6107ec6080830184610794565b9695505050505050565b600060208201905081810360008301526108108184610670565b905092915050565b600060208201905061082d60008301846106ce565b92915050565b6000602082019050818103600083015261084c816106dd565b9050919050565b60006020820190506108686000830184610794565b92915050565b6000819050602082019050919050565b600081519050919050565b6000602082019050919050565b600082825260208201905092915050565b600082825260208201905092915050565b60006108c3826108d6565b9050919050565b60008115159050919050565b600073ffffffffffffffffffffffffffffffffffffffff82169050919050565b6000819050919050565b610909816108b8565b811461091457600080fd5b50565b610920816108f6565b811461092b57600080fd5b5056fea264697066735822122041a5824a83dbdebeabf588ec87d6480d674bd9d1f09a11e965cea3e850a24be564736f6c634300060c0033",
					"opcodes": "PUSH1 0x80 PUSH1 0x40 MSTORE CALLVALUE DUP1 ISZERO PUSH2 0x10 JUMPI PUSH1 0x0 DUP1 REVERT JUMPDEST POP PUSH1 0x40 MLOAD PUSH2 0xA52 CODESIZE SUB DUP1 PUSH2 0xA52 DUP4 CODECOPY DUP2 DUP2 ADD PUSH1 0x40 MSTORE DUP2 ADD SWAP1 PUSH2 0x32 SWAP2 SWAP1 PUSH2 0x95 JUMP JUMPDEST CALLER PUSH1 0x6 PUSH1 0x0 PUSH2 0x100 EXP DUP2 SLOAD DUP2 PUSH20 0xFFFFFFFFFFFFFFFFFFFFFFFFFFFFFFFFFFFFFFFF MUL NOT AND SWAP1 DUP4 PUSH20 0xFFFFFFFFFFFFFFFFFFFFFFFFFFFFFFFFFFFFFFFF AND MUL OR SWAP1 SSTORE POP DUP1 PUSH1 0x7 DUP2 SWAP1 SSTORE POP POP PUSH2 0xDF JUMP JUMPDEST PUSH1 0x0 DUP2 MLOAD SWAP1 POP PUSH2 0x8F DUP2 PUSH2 0xC8 JUMP JUMPDEST SWAP3 SWAP2 POP POP JUMP JUMPDEST PUSH1 0x0 PUSH1 0x20 DUP3 DUP5 SUB SLT ISZERO PUSH2 0xA7 JUMPI PUSH1 0x0 DUP1 REVERT JUMPDEST PUSH1 0x0 PUSH2 0xB5 DUP5 DUP3 DUP6 ADD PUSH2 0x80 JUMP JUMPDEST SWAP2 POP POP SWAP3 SWAP2 POP POP JUMP JUMPDEST PUSH1 0x0 DUP2 SWAP1 POP SWAP2 SWAP1 POP JUMP JUMPDEST PUSH2 0xD1 DUP2 PUSH2 0xBE JUMP JUMPDEST DUP2 EQ PUSH2 0xDC JUMPI PUSH1 0x0 DUP1 REVERT JUMPDEST POP JUMP JUMPDEST PUSH2 0x964 DUP1 PUSH2 0xEE PUSH1 0x0 CODECOPY PUSH1 0x0 RETURN INVALID PUSH1 0x80 PUSH1 0x40 MSTORE PUSH1 0x4 CALLDATASIZE LT PUSH2 0x4A JUMPI PUSH1 0x0 CALLDATALOAD PUSH1 0xE0 SHR DUP1 PUSH4 0x126D0854 EQ PUSH2 0x4F JUMPI DUP1 PUSH4 0x854303CF EQ PUSH2 0x7F JUMPI DUP1 PUSH4 0x8E63A10D EQ PUSH2 0xBC JUMPI DUP1 PUSH4 0xA05475C9 EQ PUSH2 0xE7 JUMPI DUP1 PUSH4 0xBD30558E EQ PUSH2 0x128 JUMPI JUMPDEST PUSH1 0x0 DUP1 REVERT JUMPDEST PUSH2 0x69 PUSH1 0x4 DUP1 CALLDATASIZE SUB DUP2 ADD SWAP1 PUSH2 0x64 SWAP2 SWAP1 PUSH2 0x611 JUMP JUMPDEST PUSH2 0x153 JUMP JUMPDEST PUSH1 0x40 MLOAD PUSH2 0x76 SWAP2 SWAP1 PUSH2 0x818 JUMP JUMPDEST PUSH1 0x40 MLOAD DUP1 SWAP2 SUB SWAP1 RETURN JUMPDEST CALLVALUE DUP1 ISZERO PUSH2 0x8B JUMPI PUSH1 0x0 DUP1 REVERT JUMPDEST POP PUSH2 0xA6 PUSH1 0x4 DUP1 CALLDATASIZE SUB DUP2 ADD SWAP1 PUSH2 0xA1 SWAP2 SWAP1 PUSH2 0x611 JUMP JUMPDEST PUSH2 0x343 JUMP JUMPDEST PUSH1 0x40 MLOAD PUSH2 0xB3 SWAP2 SWAP1 PUSH2 0x818 JUMP JUMPDEST PUSH1 0x40 MLOAD DUP1 SWAP2 SUB SWAP1 RETURN JUMPDEST CALLVALUE DUP1 ISZERO PUSH2 0xC8 JUMPI PUSH1 0x0 DUP1 REVERT JUMPDEST POP PUSH2 0xD1 PUSH2 0x41C JUMP JUMPDEST PUSH1 0x40 MLOAD PUSH2 0xDE SWAP2 SWAP1 PUSH2 0x7F6 JUMP JUMPDEST PUSH1 0x40 MLOAD DUP1 SWAP2 SUB SWAP1 RETURN JUMPDEST CALLVALUE DUP1 ISZERO PUSH2 0xF3 JUMPI PUSH1 0x0 DUP1 REVERT JUMPDEST POP PUSH2 0x10E PUSH1 0x4 DUP1 CALLDATASIZE SUB DUP2 ADD SWAP1 PUSH2 0x109 SWAP2 SWAP1 PUSH2 0x5D5 JUMP JUMPDEST PUSH2 0x535 JUMP JUMPDEST PUSH1 0x40 MLOAD PUSH2 0x11F SWAP6 SWAP5 SWAP4 SWAP3 SWAP2 SWAP1 PUSH2 0x7A3 JUMP JUMPDEST PUSH1 0x40 MLOAD DUP1 SWAP2 SUB SWAP1 RETURN JUMPDEST CALLVALUE DUP1 ISZERO PUSH2 0x134 JUMPI PUSH1 0x0 DUP1 REVERT JUMPDEST POP PUSH2 0x13D PUSH2 0x5A5 JUMP JUMPDEST PUSH1 0x40 MLOAD PUSH2 0x14A SWAP2 SWAP1 PUSH2 0x853 JUMP JUMPDEST PUSH1 0x40 MLOAD DUP1 SWAP2 SUB SWAP1 RETURN JUMPDEST PUSH1 0x0 CALLER PUSH1 0x1 PUSH1 0x0 ADD PUSH1 0x0 PUSH2 0x100 EXP DUP2 SLOAD DUP2 PUSH20 0xFFFFFFFFFFFFFFFFFFFFFFFFFFFFFFFFFFFFFFFF MUL NOT AND SWAP1 DUP4 PUSH20 0xFFFFFFFFFFFFFFFFFFFFFFFFFFFFFFFFFFFFFFFF AND MUL OR SWAP1 SSTORE POP TIMESTAMP PUSH1 0x1 PUSH1 0x2 ADD DUP2 SWAP1 SSTORE POP PUSH3 0x15180 DUP3 MUL TIMESTAMP ADD PUSH1 0x1 PUSH1 0x3 ADD DUP2 SWAP1 SSTORE POP CALLVALUE PUSH1 0x1 DUP1 ADD DUP2 SWAP1 SSTORE POP PUSH1 0x7 SLOAD PUSH1 0x1 PUSH1 0x4 ADD DUP2 SWAP1 SSTORE POP PUSH1 0x0 DUP1 CALLER PUSH20 0xFFFFFFFFFFFFFFFFFFFFFFFFFFFFFFFFFFFFFFFF AND PUSH20 0xFFFFFFFFFFFFFFFFFFFFFFFFFFFFFFFFFFFFFFFF AND DUP2 MSTORE PUSH1 0x20 ADD SWAP1 DUP2 MSTORE PUSH1 0x20 ADD PUSH1 0x0 KECCAK256 PUSH1 0x1 SWAP1 DUP1 PUSH1 0x1 DUP2 SLOAD ADD DUP1 DUP3 SSTORE DUP1 SWAP2 POP POP PUSH1 0x1 SWAP1 SUB SWAP1 PUSH1 0x0 MSTORE PUSH1 0x20 PUSH1 0x0 KECCAK256 SWAP1 PUSH1 0x5 MUL ADD PUSH1 0x0 SWAP1 SWAP2 SWAP1 SWAP2 SWAP1 SWAP2 POP PUSH1 0x0 DUP3 ADD PUSH1 0x0 SWAP1 SLOAD SWAP1 PUSH2 0x100 EXP SWAP1 DIV PUSH20 0xFFFFFFFFFFFFFFFFFFFFFFFFFFFFFFFFFFFFFFFF AND DUP2 PUSH1 0x0 ADD PUSH1 0x0 PUSH2 0x100 EXP DUP2 SLOAD DUP2 PUSH20 0xFFFFFFFFFFFFFFFFFFFFFFFFFFFFFFFFFFFFFFFF MUL NOT AND SWAP1 DUP4 PUSH20 0xFFFFFFFFFFFFFFFFFFFFFFFFFFFFFFFFFFFFFFFF AND MUL OR SWAP1 SSTORE POP PUSH1 0x1 DUP3 ADD SLOAD DUP2 PUSH1 0x1 ADD SSTORE PUSH1 0x2 DUP3 ADD SLOAD DUP2 PUSH1 0x2 ADD SSTORE PUSH1 0x3 DUP3 ADD SLOAD DUP2 PUSH1 0x3 ADD SSTORE PUSH1 0x4 DUP3 ADD SLOAD DUP2 PUSH1 0x4 ADD SSTORE POP POP PUSH32 0x1BE81593136E4F27F6CEB1A9E322E5F008630D930A31FFD61E60025412636DE3 PUSH1 0x1 PUSH1 0x0 ADD PUSH1 0x0 SWAP1 SLOAD SWAP1 PUSH2 0x100 EXP SWAP1 DIV PUSH20 0xFFFFFFFFFFFFFFFFFFFFFFFFFFFFFFFFFFFFFFFF AND PUSH1 0x1 DUP1 ADD SLOAD PUSH1 0x1 PUSH1 0x2 ADD SLOAD PUSH1 0x1 PUSH1 0x3 ADD SLOAD PUSH1 0x1 PUSH1 0x4 ADD SLOAD PUSH1 0x40 MLOAD PUSH2 0x332 SWAP6 SWAP5 SWAP4 SWAP3 SWAP2 SWAP1 PUSH2 0x7A3 JUMP JUMPDEST PUSH1 0x40 MLOAD DUP1 SWAP2 SUB SWAP1 LOG1 PUSH1 0x1 SWAP1 POP SWAP2 SWAP1 POP JUMP JUMPDEST PUSH1 0x0 PUSH1 0x6 PUSH1 0x0 SWAP1 SLOAD SWAP1 PUSH2 0x100 EXP SWAP1 DIV PUSH20 0xFFFFFFFFFFFFFFFFFFFFFFFFFFFFFFFFFFFFFFFF AND PUSH20 0xFFFFFFFFFFFFFFFFFFFFFFFFFFFFFFFFFFFFFFFF AND CALLER PUSH20 0xFFFFFFFFFFFFFFFFFFFFFFFFFFFFFFFFFFFFFFFF AND EQ PUSH2 0x3D5 JUMPI PUSH1 0x40 MLOAD PUSH32 0x8C379A000000000000000000000000000000000000000000000000000000000 DUP2 MSTORE PUSH1 0x4 ADD PUSH2 0x3CC SWAP1 PUSH2 0x833 JUMP JUMPDEST PUSH1 0x40 MLOAD DUP1 SWAP2 SUB SWAP1 REVERT JUMPDEST DUP2 PUSH1 0x7 DUP2 SWAP1 SSTORE POP PUSH32 0xB0F8BD9FE66BCE43FB8D6B03BDC7A4F02CCDFE8F6674CF8BD0BEAAA7A2A75702 DUP3 PUSH1 0x40 MLOAD PUSH2 0x40B SWAP2 SWAP1 PUSH2 0x853 JUMP JUMPDEST PUSH1 0x40 MLOAD DUP1 SWAP2 SUB SWAP1 LOG1 PUSH1 0x1 SWAP1 POP SWAP2 SWAP1 POP JUMP JUMPDEST PUSH1 0x60 PUSH1 0x0 DUP1 CALLER PUSH20 0xFFFFFFFFFFFFFFFFFFFFFFFFFFFFFFFFFFFFFFFF AND PUSH20 0xFFFFFFFFFFFFFFFFFFFFFFFFFFFFFFFFFFFFFFFF AND DUP2 MSTORE PUSH1 0x20 ADD SWAP1 DUP2 MSTORE PUSH1 0x20 ADD PUSH1 0x0 KECCAK256 DUP1 SLOAD DUP1 PUSH1 0x20 MUL PUSH1 0x20 ADD PUSH1 0x40 MLOAD SWAP1 DUP2 ADD PUSH1 0x40 MSTORE DUP1 SWAP3 SWAP2 SWAP1 DUP2 DUP2 MSTORE PUSH1 0x20 ADD PUSH1 0x0 SWAP1 JUMPDEST DUP3 DUP3 LT ISZERO PUSH2 0x52C JUMPI DUP4 DUP3 SWAP1 PUSH1 0x0 MSTORE PUSH1 0x20 PUSH1 0x0 KECCAK256 SWAP1 PUSH1 0x5 MUL ADD PUSH1 0x40 MLOAD DUP1 PUSH1 0xA0 ADD PUSH1 0x40 MSTORE SWAP1 DUP2 PUSH1 0x0 DUP3 ADD PUSH1 0x0 SWAP1 SLOAD SWAP1 PUSH2 0x100 EXP SWAP1 DIV PUSH20 0xFFFFFFFFFFFFFFFFFFFFFFFFFFFFFFFFFFFFFFFF AND PUSH20 0xFFFFFFFFFFFFFFFFFFFFFFFFFFFFFFFFFFFFFFFF AND PUSH20 0xFFFFFFFFFFFFFFFFFFFFFFFFFFFFFFFFFFFFFFFF AND DUP2 MSTORE PUSH1 0x20 ADD PUSH1 0x1 DUP3 ADD SLOAD DUP2 MSTORE PUSH1 0x20 ADD PUSH1 0x2 DUP3 ADD SLOAD DUP2 MSTORE PUSH1 0x20 ADD PUSH1 0x3 DUP3 ADD SLOAD DUP2 MSTORE PUSH1 0x20 ADD PUSH1 0x4 DUP3 ADD SLOAD DUP2 MSTORE POP POP DUP2 MSTORE PUSH1 0x20 ADD SWAP1 PUSH1 0x1 ADD SWAP1 PUSH2 0x47C JUMP JUMPDEST POP POP POP POP SWAP1 POP SWAP1 JUMP JUMPDEST PUSH1 0x0 PUSH1 0x20 MSTORE DUP2 PUSH1 0x0 MSTORE PUSH1 0x40 PUSH1 0x0 KECCAK256 DUP2 DUP2 SLOAD DUP2 LT PUSH2 0x54E JUMPI INVALID JUMPDEST SWAP1 PUSH1 0x0 MSTORE PUSH1 0x20 PUSH1 0x0 KECCAK256 SWAP1 PUSH1 0x5 MUL ADD PUSH1 0x0 SWAP2 POP SWAP2 POP POP DUP1 PUSH1 0x0 ADD PUSH1 0x0 SWAP1 SLOAD SWAP1 PUSH2 0x100 EXP SWAP1 DIV PUSH20 0xFFFFFFFFFFFFFFFFFFFFFFFFFFFFFFFFFFFFFFFF AND SWAP1 DUP1 PUSH1 0x1 ADD SLOAD SWAP1 DUP1 PUSH1 0x2 ADD SLOAD SWAP1 DUP1 PUSH1 0x3 ADD SLOAD SWAP1 DUP1 PUSH1 0x4 ADD SLOAD SWAP1 POP DUP6 JUMP JUMPDEST PUSH1 0x7 SLOAD DUP2 JUMP JUMPDEST PUSH1 0x0 DUP2 CALLDATALOAD SWAP1 POP PUSH2 0x5BA DUP2 PUSH2 0x900 JUMP JUMPDEST SWAP3 SWAP2 POP POP JUMP JUMPDEST PUSH1 0x0 DUP2 CALLDATALOAD SWAP1 POP PUSH2 0x5CF DUP2 PUSH2 0x917 JUMP JUMPDEST SWAP3 SWAP2 POP POP JUMP JUMPDEST PUSH1 0x0 DUP1 PUSH1 0x40 DUP4 DUP6 SUB SLT ISZERO PUSH2 0x5E8 JUMPI PUSH1 0x0 DUP1 REVERT JUMPDEST PUSH1 0x0 PUSH2 0x5F6 DUP6 DUP3 DUP7 ADD PUSH2 0x5AB JUMP JUMPDEST SWAP3 POP POP PUSH1 0x20 PUSH2 0x607 DUP6 DUP3 DUP7 ADD PUSH2 0x5C0 JUMP JUMPDEST SWAP2 POP POP SWAP3 POP SWAP3 SWAP1 POP JUMP JUMPDEST PUSH1 0x0 PUSH1 0x20 DUP3 DUP5 SUB SLT ISZERO PUSH2 0x623 JUMPI PUSH1 0x0 DUP1 REVERT JUMPDEST PUSH1 0x0 PUSH2 0x631 DUP5 DUP3 DUP6 ADD PUSH2 0x5C0 JUMP JUMPDEST SWAP2 POP POP SWAP3 SWAP2 POP POP JUMP JUMPDEST PUSH1 0x0 PUSH2 0x646 DUP4 DUP4 PUSH2 0x71D JUMP JUMPDEST PUSH1 0xA0 DUP4 ADD SWAP1 POP SWAP3 SWAP2 POP POP JUMP JUMPDEST PUSH2 0x65B DUP2 PUSH2 0x8B8 JUMP JUMPDEST DUP3 MSTORE POP POP JUMP JUMPDEST PUSH2 0x66A DUP2 PUSH2 0x8B8 JUMP JUMPDEST DUP3 MSTORE POP POP JUMP JUMPDEST PUSH1 0x0 PUSH2 0x67B DUP3 PUSH2 0x87E JUMP JUMPDEST PUSH2 0x685 DUP2 DUP6 PUSH2 0x896 JUMP JUMPDEST SWAP4 POP PUSH2 0x690 DUP4 PUSH2 0x86E JUMP JUMPDEST DUP1 PUSH1 0x0 JUMPDEST DUP4 DUP2 LT ISZERO PUSH2 0x6C1 JUMPI DUP2 MLOAD PUSH2 0x6A8 DUP9 DUP3 PUSH2 0x63A JUMP JUMPDEST SWAP8 POP PUSH2 0x6B3 DUP4 PUSH2 0x889 JUMP JUMPDEST SWAP3 POP POP PUSH1 0x1 DUP2 ADD SWAP1 POP PUSH2 0x694 JUMP JUMPDEST POP DUP6 SWAP4 POP POP POP POP SWAP3 SWAP2 POP POP JUMP JUMPDEST PUSH2 0x6D7 DUP2 PUSH2 0x8CA JUMP JUMPDEST DUP3 MSTORE POP POP JUMP JUMPDEST PUSH1 0x0 PUSH2 0x6EA PUSH1 0x9 DUP4 PUSH2 0x8A7 JUMP JUMPDEST SWAP2 POP PUSH32 0x466F7262696464656E0000000000000000000000000000000000000000000000 PUSH1 0x0 DUP4 ADD MSTORE PUSH1 0x20 DUP3 ADD SWAP1 POP SWAP2 SWAP1 POP JUMP JUMPDEST PUSH1 0xA0 DUP3 ADD PUSH1 0x0 DUP3 ADD MLOAD PUSH2 0x733 PUSH1 0x0 DUP6 ADD DUP3 PUSH2 0x652 JUMP JUMPDEST POP PUSH1 0x20 DUP3 ADD MLOAD PUSH2 0x746 PUSH1 0x20 DUP6 ADD DUP3 PUSH2 0x785 JUMP JUMPDEST POP PUSH1 0x40 DUP3 ADD MLOAD PUSH2 0x759 PUSH1 0x40 DUP6 ADD DUP3 PUSH2 0x785 JUMP JUMPDEST POP PUSH1 0x60 DUP3 ADD MLOAD PUSH2 0x76C PUSH1 0x60 DUP6 ADD DUP3 PUSH2 0x785 JUMP JUMPDEST POP PUSH1 0x80 DUP3 ADD MLOAD PUSH2 0x77F PUSH1 0x80 DUP6 ADD DUP3 PUSH2 0x785 JUMP JUMPDEST POP POP POP POP JUMP JUMPDEST PUSH2 0x78E DUP2 PUSH2 0x8F6 JUMP JUMPDEST DUP3 MSTORE POP POP JUMP JUMPDEST PUSH2 0x79D DUP2 PUSH2 0x8F6 JUMP JUMPDEST DUP3 MSTORE POP POP JUMP JUMPDEST PUSH1 0x0 PUSH1 0xA0 DUP3 ADD SWAP1 POP PUSH2 0x7B8 PUSH1 0x0 DUP4 ADD DUP9 PUSH2 0x661 JUMP JUMPDEST PUSH2 0x7C5 PUSH1 0x20 DUP4 ADD DUP8 PUSH2 0x794 JUMP JUMPDEST PUSH2 0x7D2 PUSH1 0x40 DUP4 ADD DUP7 PUSH2 0x794 JUMP JUMPDEST PUSH2 0x7DF PUSH1 0x60 DUP4 ADD DUP6 PUSH2 0x794 JUMP JUMPDEST PUSH2 0x7EC PUSH1 0x80 DUP4 ADD DUP5 PUSH2 0x794 JUMP JUMPDEST SWAP7 SWAP6 POP POP POP POP POP POP JUMP JUMPDEST PUSH1 0x0 PUSH1 0x20 DUP3 ADD SWAP1 POP DUP2 DUP2 SUB PUSH1 0x0 DUP4 ADD MSTORE PUSH2 0x810 DUP2 DUP5 PUSH2 0x670 JUMP JUMPDEST SWAP1 POP SWAP3 SWAP2 POP POP JUMP JUMPDEST PUSH1 0x0 PUSH1 0x20 DUP3 ADD SWAP1 POP PUSH2 0x82D PUSH1 0x0 DUP4 ADD DUP5 PUSH2 0x6CE JUMP JUMPDEST SWAP3 SWAP2 POP POP JUMP JUMPDEST PUSH1 0x0 PUSH1 0x20 DUP3 ADD SWAP1 POP DUP2 DUP2 SUB PUSH1 0x0 DUP4 ADD MSTORE PUSH2 0x84C DUP2 PUSH2 0x6DD JUMP JUMPDEST SWAP1 POP SWAP2 SWAP1 POP JUMP JUMPDEST PUSH1 0x0 PUSH1 0x20 DUP3 ADD SWAP1 POP PUSH2 0x868 PUSH1 0x0 DUP4 ADD DUP5 PUSH2 0x794 JUMP JUMPDEST SWAP3 SWAP2 POP POP JUMP JUMPDEST PUSH1 0x0 DUP2 SWAP1 POP PUSH1 0x20 DUP3 ADD SWAP1 POP SWAP2 SWAP1 POP JUMP JUMPDEST PUSH1 0x0 DUP2 MLOAD SWAP1 POP SWAP2 SWAP1 POP JUMP JUMPDEST PUSH1 0x0 PUSH1 0x20 DUP3 ADD SWAP1 POP SWAP2 SWAP1 POP JUMP JUMPDEST PUSH1 0x0 DUP3 DUP3 MSTORE PUSH1 0x20 DUP3 ADD SWAP1 POP SWAP3 SWAP2 POP POP JUMP JUMPDEST PUSH1 0x0 DUP3 DUP3 MSTORE PUSH1 0x20 DUP3 ADD SWAP1 POP SWAP3 SWAP2 POP POP JUMP JUMPDEST PUSH1 0x0 PUSH2 0x8C3 DUP3 PUSH2 0x8D6 JUMP JUMPDEST SWAP1 POP SWAP2 SWAP1 POP JUMP JUMPDEST PUSH1 0x0 DUP2 ISZERO ISZERO SWAP1 POP SWAP2 SWAP1 POP JUMP JUMPDEST PUSH1 0x0 PUSH20 0xFFFFFFFFFFFFFFFFFFFFFFFFFFFFFFFFFFFFFFFF DUP3 AND SWAP1 POP SWAP2 SWAP1 POP JUMP JUMPDEST PUSH1 0x0 DUP2 SWAP1 POP SWAP2 SWAP1 POP JUMP JUMPDEST PUSH2 0x909 DUP2 PUSH2 0x8B8 JUMP JUMPDEST DUP2 EQ PUSH2 0x914 JUMPI PUSH1 0x0 DUP1 REVERT JUMPDEST POP JUMP JUMPDEST PUSH2 0x920 DUP2 PUSH2 0x8F6 JUMP JUMPDEST DUP2 EQ PUSH2 0x92B JUMPI PUSH1 0x0 DUP1 REVERT JUMPDEST POP JUMP INVALID LOG2 PUSH5 0x6970667358 0x22 SLT KECCAK256 COINBASE 0xA5 DUP3 0x4A DUP4 0xDB 0xDE 0xBE 0xAB CREATE2 DUP9 0xEC DUP8 0xD6 0x48 0xD PUSH8 0x4BD9D1F09A11E965 0xCE LOG3 0xE8 POP LOG2 0x4B 0xE5 PUSH5 0x736F6C6343 STOP MOD 0xC STOP CALLER "
				},
				"gasEstimates": {
					"creation": {
						"codeDepositCost": "480800",
						"executionCost": "infinite",
						"totalCost": "infinite"
					},
					"external": {
						"APR()": "1195",
						"getloanList()": "infinite",
						"loanList(address,uint256)": "infinite",
						"setAPR(uint256)": "infinite",
						"setLoan(uint256)": "infinite"
					}
				},
				"methodIdentifiers": {
					"APR()": "bd30558e",
					"getloanList()": "8e63a10d",
					"loanList(address,uint256)": "a05475c9",
					"setAPR(uint256)": "854303cf",
					"setLoan(uint256)": "126d0854"
				}
			},
			"userdoc": {
				"kind": "user",
				"methods": {},
				"version": 1
			}
		}
	}
}